S015000074726166666963206C696768742E73726563F8
S11300000C942A000C9447000C9447000C9447006D
S11300100C9447000C9447000C9447000C94470040
S11300200C9447000C9447000C9447000C94470030
S11300300C9447000C9447000C9447000C94470020
S11300400C9447000C9447000C9447000C94470010
S11300500C94470011241FBECFE5D8E0DEBFCDBF0E
S113006010E0A0E6B0E0E6E0F8E002C005900D92F2
S1130070AC36B107D9F710E0ACE6B0E001C01D9290
S1130080AD36B107E1F70E942D030C9401040C94E2
S11300900000823451F1833420F4813409F07BC0B0
S11300A007C0833409F43EC0843409F074C057C0D7
S11300B0413069F42AB381E090E0AC0102C0440FFE
S11300C0551F6A95E2F7BA01622B6ABB08952AB3F9
S11300D081E090E0AC0102C0440F551F6A95E2F73D
S11300E0BA01609562236ABB0895413069F427B36D
S11300F081E090E0AC0102C0440F551F6A95E2F71D
S1130100BA01622B67BB089527B381E090E0AC018C
S113011002C0440F551F6A95E2F7BA016095622345
S113012067BB0895413069F424B381E090E0AC01E9
S113013002C0440F551F6A95E2F7BA01622B64BBF3
S1130140089524B381E090E0AC0102C0440F551F30
S11301506A95E2F7BA016095622364BB0895413061
S113016069F421B381E090E0AC0102C0440F551F53
S11301706A95E2F7BA01622B61BB089521B381E06D
S113018090E0AC0102C0440F551F6A95E2F7BA0132
S11301906095622361BB0895823451F1833420F465
S11301A0813409F07BC007C0833409F43EC0843431
S11301B009F074C057C0413069F42BB381E090E07A
S11301C0AC0102C0440F551F6A95E2F7BA01622BD5
S11301D06BBB08952BB381E090E0AC0102C0440FE7
S11301E0551F6A95E2F7BA01609562236BBB0895C7
S11301F0413069F428B381E090E0AC0102C0440FBF
S1130200551F6A95E2F7BA01622B68BB089528B3BB
S113021081E090E0AC0102C0440F551F6A95E2F7FB
S1130220BA016095622368BB0895413069F425B32F
S113023081E090E0AC0102C0440F551F6A95E2F7DB
S1130240BA01622B65BB089525B381E090E0AC014F
S113025002C0440F551F6A95E2F7BA016095622304
S113026065BB0895413069F422B381E090E0AC01AC
S113027002C0440F551F6A95E2F7BA01622B62BBB4
S1130280089522B381E090E0AC0102C0440F551FF1
S11302906A95E2F7BA016095622362BB08958234DD
S11302A0F1F0833420F4813409F04FC006C0833464
S11302B041F1843409F049C036C029B381E090E0AB
S11302C0062E02C0880F991F0A94E2F730E08223B9
S11302D0932302C0959587956A95E2F7089526B30E
S11302E081E090E0062E02C0880F991F0A94E2F77D
S11302F030E08223932302C0959587956A95E2F7AF
S1130300089523B381E090E0062E02C0880F991F60
S11303100A94E2F730E08223932302C095958795EF
S11303206A95E2F7089520B381E090E0062E02C0BA
S1130330880F991F0A94E2F730E08223932302C0C6
S1130340959587956A95E2F7089580E0089582343B
S1130350B9F0833418F48134C9F505C08334E9F065
S11303608434A1F527C02BB381E090E0AC0102C036
S1130370440F551F6A95E2F7BA0162276BBB0895D3
S113038028B381E090E0AC0102C0440F551F6A9588
S1130390E2F7BA01622768BB089525B381E090E0D3
S11303A0AC0102C0440F551F6A95E2F7BA016227F7
S11303B065BB089522B381E090E0AC0102C0440F14
S11303C0551F6A95E2F7BA01622762BB0895823429
S11303D061F0833418F4813469F405C0833439F04E
S11303E0843441F406C06ABB089567BB089564BBB6
S11303F0089561BB0895823461F0833418F4813424
S113040069F405C0833439F0843441F406C06BBB0D
S1130410089568BB089565BB089562BB089582344E
S113042061F0833418F4813471F405C0833439F0F5
S1130430843449F406C089B3089586B3089583B318
S1130440089580B3089580E00895823451F183348F
S113045020F4813409F07BC007C0833409F43EC022
S1130460843409F074C057C0413069F42BB381E07F
S113047090E0AC0102C0440F551F6A95E2F7BA013F
S1130480622B6BBB08952BB381E090E0AC0102C0FA
S1130490440F551F6A95E2F7BA01609562236BBB5E
S11304A00895413069F428B381E090E0AC0102C0C2
S11304B0440F551F6A95E2F7BA01622B68BB089591
S11304C028B381E090E0AC0102C0440F551F6A9547
S11304D0E2F7BA016095622368BB0895413069F47C
S11304E025B381E090E0AC0102C0440F551F6A952A
S11304F0E2F7BA01622B65BB089525B381E090E071
S1130500AC0102C0440F551F6A95E2F7BA01609529
S1130510622365BB0895413069F422B381E090E021
S1130520AC0102C0440F551F6A95E2F7BA01622B71
S113053062BB089522B381E090E0AC0102C0440F95
S1130540551F6A95E2F7BA016095622362BB08956C
S11305506F70823489F0833418F4813409F505C04E
S1130560833489F08434E1F415C08BB3807F8BBB72
S11305708BB3682B6BBB089588B3807F88BB88B32B
S1130580682B68BB089585B3807F85BB85B3682BD2
S113059065BB089582B3807F82BB82B3682B62BB44
S11305A008956295607F823481F0833418F4813435
S11305B0F1F405C0833479F08434C9F412C08BB3E8
S11305C08F708BBB8BB3862B8BBB88B38F7088BB30
S11305D088B3862B88BB85B38F7085BB85B3862B88
S11305E085BB82B38F7082BB82B3682B62BB0895D4
S11305F041E00E944900089541E00E94CC00089522
S113060040E00E94CC0008950E94A70108956FE085
S11306100E94E7010895CF93DF93CDB7DEB72A9701
S11306200FB6F894DEBF0FBECDBFDE011196E0E633
S1130630F0E09AE001900D929150E1F7FE01E60F8F
S1130640F11D61810E94A8022A960FB6F894DEBFBC
S11306500FBECDBFDF91CF91089583E460E00E9487
S1130660F80283E461E00E94F80283E462E00E94FD
S1130670F80281E40E940703D49AD59ACCE4D4E02A
S11306800F2EF0E28F2EF3E09F2EF02D0F2EF8E5C3
S1130690AF2EF2E0BF2EF02D04E610E00F2EFAE0AC
S11306A0EF2EFF24F02D0F2EF8EECF2EF3E0DF2EE9
S11306B0F02D80916C008823D9F483E462E00E94D9
S11306C0FC0283E461E00E94000383E460E00E9492
S11306D00003D0936B00C0936A0081E080936C00A8
S11306E080916A0090916B001816190614F72BC0BC
S11306F08130A1F483E461E00E94FC0283E462E0BF
S11307000E94000383E460E00E940003B0926B0047
S1130710A0926A0082E080936C00E2CF823001F7FD
S113072083E460E00E94FC0283E462E00E94000330
S113073083E461E00E94000390926B0080926A005F
S113074010926C00CDCFDC9ADD9880916A00909174
S11307506B00B8010E94DA03CB01B7010E94DA03EF
S1130760682F81E40E940B038FE097E20197F1F771
S113077000C00000DD9ADC9880916A0090916B00C3
S1130780B6010E94DA0381E40E940B038FE097E232
S11307900197F1F700C0000080916A0090916B000E
S11307A0019790936B0080936A00181619060CF059
S11307B080CFC9CF97FB092E07260AD077FD04D036
S11307C00CD006D000201AF4709561957F4F0895DF
S11307D0F6F7909581959F4F0895AA1BBB1B51E195
S11307E007C0AA1FBB1FA617B70710F0A61BB70B9D
S11307F0881F991F5A95A9F780959095BC01CD0142
S10908000895F894FFCFF7
S10F0806000102030405060708094C0465
S9030000FC
